{
  "contractName": "SimpleContract",
  "abi": [
    {
      "constant": true,
      "inputs": [],
      "name": "numberOfUserAccounts",
      "outputs": [
        {
          "name": "",
          "type": "uint256"
        }
      ],
      "payable": false,
      "stateMutability": "view",
      "type": "function"
    },
    {
      "constant": true,
      "inputs": [
        {
          "name": "",
          "type": "uint256"
        }
      ],
      "name": "Endorsers",
      "outputs": [
        {
          "name": "",
          "type": "address"
        }
      ],
      "payable": false,
      "stateMutability": "view",
      "type": "function"
    },
    {
      "constant": true,
      "inputs": [],
      "name": "numberOfEndorserAccounts",
      "outputs": [
        {
          "name": "",
          "type": "uint256"
        }
      ],
      "payable": false,
      "stateMutability": "view",
      "type": "function"
    },
    {
      "constant": true,
      "inputs": [
        {
          "name": "",
          "type": "uint256"
        }
      ],
      "name": "AppliedEndorsementList",
      "outputs": [
        {
          "name": "AppliedBy",
          "type": "address"
        },
        {
          "name": "appliedByPw",
          "type": "string"
        }
      ],
      "payable": false,
      "stateMutability": "view",
      "type": "function"
    },
    {
      "inputs": [],
      "payable": false,
      "stateMutability": "nonpayable",
      "type": "constructor"
    },
    {
      "anonymous": false,
      "inputs": [
        {
          "indexed": false,
          "name": "AllotedAddress",
          "type": "address"
        }
      ],
      "name": "AllotedAddress",
      "type": "event"
    },
    {
      "anonymous": false,
      "inputs": [
        {
          "indexed": false,
          "name": "AllotedAddressEndorser",
          "type": "address"
        }
      ],
      "name": "AllotedAddressEndorser",
      "type": "event"
    },
    {
      "anonymous": false,
      "inputs": [
        {
          "indexed": false,
          "name": "status",
          "type": "string"
        }
      ],
      "name": "Status",
      "type": "event"
    },
    {
      "constant": false,
      "inputs": [
        {
          "name": "name",
          "type": "string"
        },
        {
          "name": "password",
          "type": "string"
        },
        {
          "name": "city",
          "type": "string"
        },
        {
          "name": "email",
          "type": "string"
        },
        {
          "name": "DOB",
          "type": "string"
        },
        {
          "name": "nId",
          "type": "string"
        }
      ],
      "name": "createUserAccount",
      "outputs": [
        {
          "name": "",
          "type": "address"
        }
      ],
      "payable": false,
      "stateMutability": "nonpayable",
      "type": "function"
    },
    {
      "constant": false,
      "inputs": [
        {
          "name": "addr",
          "type": "address"
        },
        {
          "name": "pw",
          "type": "string"
        }
      ],
      "name": "getDetails",
      "outputs": [
        {
          "name": "",
          "type": "bool"
        },
        {
          "name": "",
          "type": "string"
        },
        {
          "name": "",
          "type": "string"
        },
        {
          "name": "",
          "type": "string"
        },
        {
          "name": "",
          "type": "string"
        },
        {
          "name": "",
          "type": "string"
        },
        {
          "name": "",
          "type": "bool"
        }
      ],
      "payable": false,
      "stateMutability": "nonpayable",
      "type": "function"
    },
    {
      "constant": false,
      "inputs": [
        {
          "name": "name",
          "type": "string"
        },
        {
          "name": "pw",
          "type": "string"
        }
      ],
      "name": "createEndorser",
      "outputs": [
        {
          "name": "",
          "type": "address"
        }
      ],
      "payable": false,
      "stateMutability": "nonpayable",
      "type": "function"
    },
    {
      "constant": false,
      "inputs": [
        {
          "name": "addr",
          "type": "address"
        },
        {
          "name": "pw",
          "type": "string"
        }
      ],
      "name": "applyForEndorsemntMain",
      "outputs": [
        {
          "name": "",
          "type": "string"
        }
      ],
      "payable": false,
      "stateMutability": "nonpayable",
      "type": "function"
    },
    {
      "constant": false,
      "inputs": [],
      "name": "getNumberofAppliedEndorsementCurrent",
      "outputs": [
        {
          "name": "a",
          "type": "uint256"
        }
      ],
      "payable": false,
      "stateMutability": "nonpayable",
      "type": "function"
    },
    {
      "constant": false,
      "inputs": [
        {
          "name": "addr",
          "type": "address"
        },
        {
          "name": "pw",
          "type": "string"
        },
        {
          "name": "position",
          "type": "uint256"
        }
      ],
      "name": "getAllAppliedEndorsements",
      "outputs": [
        {
          "name": "",
          "type": "address"
        },
        {
          "name": "",
          "type": "string"
        }
      ],
      "payable": false,
      "stateMutability": "nonpayable",
      "type": "function"
    },
    {
      "constant": false,
      "inputs": [
        {
          "name": "addr",
          "type": "address"
        },
        {
          "name": "pw",
          "type": "string"
        },
        {
          "name": "uaddr",
          "type": "address"
        },
        {
          "name": "id",
          "type": "uint256"
        }
      ],
      "name": "EndorsementVerified",
      "outputs": [
        {
          "name": "",
          "type": "string"
        }
      ],
      "payable": false,
      "stateMutability": "nonpayable",
      "type": "function"
    },
    {
      "constant": false,
      "inputs": [
        {
          "name": "addr",
          "type": "address"
        },
        {
          "name": "pw",
          "type": "string"
        },
        {
          "name": "uaddr",
          "type": "address"
        },
        {
          "name": "id",
          "type": "uint256"
        }
      ],
      "name": "EndorsementRejected",
      "outputs": [
        {
          "name": "",
          "type": "string"
        }
      ],
      "payable": false,
      "stateMutability": "nonpayable",
      "type": "function"
    },
    {
      "constant": true,
      "inputs": [
        {
          "name": "addr",
          "type": "address"
        }
      ],
      "name": "getNumberofEndorsementOfUser1",
      "outputs": [
        {
          "name": "",
          "type": "uint256"
        }
      ],
      "payable": false,
      "stateMutability": "view",
      "type": "function"
    },
    {
      "constant": false,
      "inputs": [
        {
          "name": "addr",
          "type": "address"
        },
        {
          "name": "pw",
          "type": "string"
        },
        {
          "name": "position",
          "type": "uint256"
        }
      ],
      "name": "getEndorserFromUser",
      "outputs": [
        {
          "name": "",
          "type": "address"
        },
        {
          "name": "",
          "type": "string"
        },
        {
          "name": "",
          "type": "string"
        }
      ],
      "payable": false,
      "stateMutability": "nonpayable",
      "type": "function"
    }
  ],
  "bytecode": "0x608060405234801561001057600080fd5b506000600181905550600060028190555060008081905550615aab806100376000396000f300608060405260043610620000df576000357c0100000000000000000000000000000000000000000000000000000000900463ffffffff1680630cbf541714620000e457806331180d7814620001125780635344673b14620002575780635707c34e1462000389578063654c86a8146200053d57806375f9ee9014620005ad5780638523554714620006df578063ae7bd80c14620008e9578063bb8219d51462000943578063c7413c7d1462000971578063d90f118b1462000a63578063e0b7d2d01462000b42578063e5a190171462000b70578063f1dcaafd1462000e4a575b600080fd5b348015620000f157600080fd5b50620000fc62000f52565b6040518082815260200191505060405180910390f35b3480156200011f57600080fd5b50620001a6600480360381019080803573ffffffffffffffffffffffffffffffffffffffff169060200190929190803590602001908201803590602001908080601f01602080910402602001604051908101604052809392919081815260200183838082843782019150505050505091929192908035906020019092919050505062000f58565b604051808373ffffffffffffffffffffffffffffffffffffffff1673ffffffffffffffffffffffffffffffffffffffff16815260200180602001828103825283818151815260200191508051906020019080838360005b838110156200021a578082015181840152602081019050620001fd565b50505050905090810190601f168015620002485780820380516001836020036101000a031916815260200191505b50935050505060405180910390f35b3480156200026457600080fd5b506200030b600480360381019080803573ffffffffffffffffffffffffffffffffffffffff169060200190929190803590602001908201803590602001908080601f0160208091040260200160405190810160405280939291908181526020018383808284378201915050505050509192919290803573ffffffffffffffffffffffffffffffffffffffff169060200190929190803590602001909291905050506200136c565b6040518080602001828103825283818151815260200191508051906020019080838360005b838110156200034d57808201518184015260208101905062000330565b50505050905090810190601f1680156200037b5780820380516001836020036101000a031916815260200191505b509250505060405180910390f35b3480156200039657600080fd5b506200041d600480360381019080803573ffffffffffffffffffffffffffffffffffffffff169060200190929190803590602001908201803590602001908080601f01602080910402602001604051908101604052809392919081815260200183838082843782019150505050505091929192908035906020019092919050505062001b4d565b604051808473ffffffffffffffffffffffffffffffffffffffff1673ffffffffffffffffffffffffffffffffffffffff1681526020018060200180602001838103835285818151815260200191508051906020019080838360005b838110156200049557808201518184015260208101905062000478565b50505050905090810190601f168015620004c35780820380516001836020036101000a031916815260200191505b50838103825284818151815260200191508051906020019080838360005b83811015620004fe578082015181840152602081019050620004e1565b50505050905090810190601f1680156200052c5780820380516001836020036101000a031916815260200191505b509550505050505060405180910390f35b3480156200054a57600080fd5b506200056b6004803603810190808035906020019092919050505062002017565b604051808273ffffffffffffffffffffffffffffffffffffffff1673ffffffffffffffffffffffffffffffffffffffff16815260200191505060405180910390f35b348015620005ba57600080fd5b5062000661600480360381019080803573ffffffffffffffffffffffffffffffffffffffff169060200190929190803590602001908201803590602001908080601f0160208091040260200160405190810160405280939291908181526020018383808284378201915050505050509192919290803573ffffffffffffffffffffffffffffffffffffffff1690602001909291908035906020019092919050505062002056565b6040518080602001828103825283818151815260200191508051906020019080838360005b83811015620006a357808201518184015260208101905062000686565b50505050905090810190601f168015620006d15780820380516001836020036101000a031916815260200191505b509250505060405180910390f35b348015620006ec57600080fd5b50620008a7600480360381019080803590602001908201803590602001908080601f0160208091040260200160405190810160405280939291908181526020018383808284378201915050505050509192919290803590602001908201803590602001908080601f0160208091040260200160405190810160405280939291908181526020018383808284378201915050505050509192919290803590602001908201803590602001908080601f0160208091040260200160405190810160405280939291908181526020018383808284378201915050505050509192919290803590602001908201803590602001908080601f0160208091040260200160405190810160405280939291908181526020018383808284378201915050505050509192919290803590602001908201803590602001908080601f0160208091040260200160405190810160405280939291908181526020018383808284378201915050505050509192919290803590602001908201803590602001908080601f016020809104026020016040519081016040528093929190818152602001838380828437820191505050505050919291929050505062002837565b604051808273ffffffffffffffffffffffffffffffffffffffff1673ffffffffffffffffffffffffffffffffffffffff16815260200191505060405180910390f35b348015620008f657600080fd5b506200092d600480360381019080803573ffffffffffffffffffffffffffffffffffffffff16906020019092919050505062002da1565b6040518082815260200191505060405180910390f35b3480156200095057600080fd5b506200095b62002e5a565b6040518082815260200191505060405180910390f35b3480156200097e57600080fd5b5062000a21600480360381019080803590602001908201803590602001908080601f0160208091040260200160405190810160405280939291908181526020018383808284378201915050505050509192919290803590602001908201803590602001908080601f016020809104026020016040519081016040528093929190818152602001838380828437820191505050505050919291929050505062002e60565b604051808273ffffffffffffffffffffffffffffffffffffffff1673ffffffffffffffffffffffffffffffffffffffff16815260200191505060405180910390f35b34801562000a7057600080fd5b5062000a916004803603810190808035906020019092919050505062003062565b604051808373ffffffffffffffffffffffffffffffffffffffff1673ffffffffffffffffffffffffffffffffffffffff16815260200180602001828103825283818151815260200191508051906020019080838360005b8381101562000b0557808201518184015260208101905062000ae8565b50505050905090810190601f16801562000b335780820380516001836020036101000a031916815260200191505b50935050505060405180910390f35b34801562000b4f57600080fd5b5062000b5a62003152565b6040518082815260200191505060405180910390f35b34801562000b7d57600080fd5b5062000bfa600480360381019080803573ffffffffffffffffffffffffffffffffffffffff169060200190929190803590602001908201803590602001908080601f016020809104026020016040519081016040528093929190818152602001838380828437820191505050505050919291929050505062003162565b604051808815151515815260200180602001806020018060200180602001806020018715151515815260200186810386528c818151815260200191508051906020019080838360005b8381101562000c6057808201518184015260208101905062000c43565b50505050905090810190601f16801562000c8e5780820380516001836020036101000a031916815260200191505b5086810385528b818151815260200191508051906020019080838360005b8381101562000cc957808201518184015260208101905062000cac565b50505050905090810190601f16801562000cf75780820380516001836020036101000a031916815260200191505b5086810384528a818151815260200191508051906020019080838360005b8381101562000d3257808201518184015260208101905062000d15565b50505050905090810190601f16801562000d605780820380516001836020036101000a031916815260200191505b50868103835289818151815260200191508051906020019080838360005b8381101562000d9b57808201518184015260208101905062000d7e565b50505050905090810190601f16801562000dc95780820380516001836020036101000a031916815260200191505b50868103825288818151815260200191508051906020019080838360005b8381101562000e0457808201518184015260208101905062000de7565b50505050905090810190601f16801562000e325780820380516001836020036101000a031916815260200191505b509c5050505050505050505050505060405180910390f35b34801562000e5757600080fd5b5062000ed4600480360381019080803573ffffffffffffffffffffffffffffffffffffffff169060200190929190803590602001908201803590602001908080601f0160208091040260200160405190810160405280939291908181526020018383808284378201915050505050509192919290505050620039ae565b6040518080602001828103825283818151815260200191508051906020019080838360005b8381101562000f1657808201518184015260208101905062000ef9565b50505050905090810190601f16801562000f445780820380516001836020036101000a031916815260200191505b509250505060405180910390f35b60015481565b600060606000859050846040518082805190602001908083835b60208310151562000f99578051825260208201915060208101905060208303925062000f72565b6001836020036101000a03801982511681845116808217855250505050505090500191505060405180910390206040518082600019166000191681526020019150506040518091039020600019168173ffffffffffffffffffffffffffffffffffffffff1663459ac33a6040518163ffffffff167c0100000000000000000000000000000000000000000000000000000000028152600401600060405180830381600087803b1580156200104c57600080fd5b505af115801562001061573d6000803e3d6000fd5b505050506040513d6000823e3d601f19601f8201168201806040525060208110156200108c57600080fd5b810190808051640100000000811115620010a557600080fd5b82810190506020810184811115620010bc57600080fd5b8151856001820283011164010000000082111715620010da57600080fd5b50509291905050506040518082805190602001908083835b602083101515620011195780518252602082019150602081019050602083039250620010f2565b6001836020036101000a038019825116818451168082178552505050505050905001915050604051809103902060001916148015620011fd5750600015158173ffffffffffffffffffffffffffffffffffffffff1663acffb62f6040518163ffffffff167c0100000000000000000000000000000000000000000000000000000000028152600401602060405180830381600087803b158015620011bc57600080fd5b505af1158015620011d1573d6000803e3d6000fd5b505050506040513d6020811015620011e857600080fd5b81019080805190602001909291905050501515145b1562001310576004848154811015156200121357fe5b906000526020600020906002020160000160009054906101000a900473ffffffffffffffffffffffffffffffffffffffff166004858154811015156200125557fe5b9060005260206000209060020201600101808054600181600116156101000203166002900480601f016020809104026020016040519081016040528092919081815260200182805460018160011615610100020316600290048015620012ff5780601f10620012d357610100808354040283529160200191620012ff565b820191906000526020600020905b815481529060010190602001808311620012e157829003601f168201915b505050505090509250925062001363565b73c00000000000002088730c353a52cc3fa157fbdf8090506040805190810160405280600381526020017f3132330000000000000000000000000000000000000000000000000000000000815250925092505b50935093915050565b60606000806000879250866040518082805190602001908083835b602083101515620013ae578051825260208201915060208101905060208303925062001387565b6001836020036101000a03801982511681845116808217855250505050505090500191505060405180910390206040518082600019166000191681526020019150506040518091039020600019168373ffffffffffffffffffffffffffffffffffffffff1663459ac33a6040518163ffffffff167c0100000000000000000000000000000000000000000000000000000000028152600401600060405180830381600087803b1580156200146157600080fd5b505af115801562001476573d6000803e3d6000fd5b505050506040513d6000823e3d601f19601f820116820180604052506020811015620014a157600080fd5b810190808051640100000000811115620014ba57600080fd5b82810190506020810184811115620014d157600080fd5b8151856001820283011164010000000082111715620014ef57600080fd5b50509291905050506040518082805190602001908083835b6020831015156200152e578051825260208201915060208101905060208303925062001507565b6001836020036101000a038019825116818451168082178552505050505050905001915050604051809103902060001916148015620016125750600015158373ffffffffffffffffffffffffffffffffffffffff1663acffb62f6040518163ffffffff167c0100000000000000000000000000000000000000000000000000000000028152600401602060405180830381600087803b158015620015d157600080fd5b505af1158015620015e6573d6000803e3d6000fd5b505050506040513d6020811015620015fd57600080fd5b81019080805190602001909291905050501515145b1562001b41578591508173ffffffffffffffffffffffffffffffffffffffff16632803da88898573ffffffffffffffffffffffffffffffffffffffff166317d7de7c6040518163ffffffff167c0100000000000000000000000000000000000000000000000000000000028152600401600060405180830381600087803b1580156200169d57600080fd5b505af1158015620016b2573d6000803e3d6000fd5b505050506040513d6000823e3d601f19601f820116820180604052506020811015620016dd57600080fd5b810190808051640100000000811115620016f657600080fd5b828101905060208101848111156200170d57600080fd5b81518560018202830111640100000000821117156200172b57600080fd5b50509291905050506040518363ffffffff167c0100000000000000000000000000000000000000000000000000000000028152600401808373ffffffffffffffffffffffffffffffffffffffff1673ffffffffffffffffffffffffffffffffffffffff1681526020018060200180602001838103835284818151815260200191508051906020019080838360005b83811015620017d6578082015181840152602081019050620017b9565b50505050905090810190601f168015620018045780820380516001836020036101000a031916815260200191505b50838103825260088152602001807f52656a6563746564000000000000000000000000000000000000000000000000815250602001945050505050600060405180830381600087803b1580156200185a57600080fd5b505af11580156200186f573d6000803e3d6000fd5b505050508173ffffffffffffffffffffffffffffffffffffffff16630bdd478260006040518263ffffffff167c01000000000000000000000000000000000000000000000000000000000281526004018082151515158152602001915050600060405180830381600087803b158015620018e857600080fd5b505af1158015620018fd573d6000803e3d6000fd5b505050506004858154811015156200191157fe5b9060005260206000209060020201600080820160006101000a81549073ffffffffffffffffffffffffffffffffffffffff021916905560018201600062001959919062003e78565b50508490505b60016004805490500381101562001a89576004600182018154811015156200198357fe5b906000526020600020906002020160000160009054906101000a900473ffffffffffffffffffffffffffffffffffffffff16600482815481101515620019c557fe5b906000526020600020906002020160000160006101000a81548173ffffffffffffffffffffffffffffffffffffffff021916908373ffffffffffffffffffffffffffffffffffffffff16021790555060046001820181548110151562001a2757fe5b906000526020600020906002020160010160048281548110151562001a4857fe5b9060005260206000209060020201600101908054600181600116156101000203166002900462001a7a92919062003ec4565b5080806001019150506200195f565b600460016004805490500381548110151562001aa157fe5b9060005260206000209060020201600080820160006101000a81549073ffffffffffffffffffffffffffffffffffffffff021916905560018201600062001ae9919062003e78565b5050600480548091906001900362001b02919062003f52565b506040805190810160405280600881526020017f52656a6563746564000000000000000000000000000000000000000000000000815250935062001b42565b5b505050949350505050565b60006060806000869050856040518082805190602001908083835b60208310151562001b8f578051825260208201915060208101905060208303925062001b68565b6001836020036101000a03801982511681845116808217855250505050505090500191505060405180910390206040518082600019166000191681526020019150506040518091039020600019168173ffffffffffffffffffffffffffffffffffffffff1663459ac33a6040518163ffffffff167c0100000000000000000000000000000000000000000000000000000000028152600401600060405180830381600087803b15801562001c4257600080fd5b505af115801562001c57573d6000803e3d6000fd5b505050506040513d6000823e3d601f19601f82011682018060405250602081101562001c8257600080fd5b81019080805164010000000081111562001c9b57600080fd5b8281019050602081018481111562001cb257600080fd5b815185600182028301116401000000008211171562001cd057600080fd5b50509291905050506040518082805190602001908083835b60208310151562001d0f578051825260208201915060208101905060208303925062001ce8565b6001836020036101000a03801982511681845116808217855250505050505090500191505060405180910390206000191614156200200c578073ffffffffffffffffffffffffffffffffffffffff1663cf4b8c1c866040518263ffffffff167c010000000000000000000000000000000000000000000000000000000002815260040180828152602001915050602060405180830381600087803b15801562001db757600080fd5b505af115801562001dcc573d6000803e3d6000fd5b505050506040513d602081101562001de357600080fd5b81019080805190602001909291905050508173ffffffffffffffffffffffffffffffffffffffff166307f283ff876040518263ffffffff167c010000000000000000000000000000000000000000000000000000000002815260040180828152602001915050600060405180830381600087803b15801562001e6457600080fd5b505af115801562001e79573d6000803e3d6000fd5b505050506040513d6000823e3d601f19601f82011682018060405250602081101562001ea457600080fd5b81019080805164010000000081111562001ebd57600080fd5b8281019050602081018481111562001ed457600080fd5b815185600182028301116401000000008211171562001ef257600080fd5b50509291905050508273ffffffffffffffffffffffffffffffffffffffff1663fecdd81a886040518263ffffffff167c010000000000000000000000000000000000000000000000000000000002815260040180828152602001915050600060405180830381600087803b15801562001f6a57600080fd5b505af115801562001f7f573d6000803e3d6000fd5b505050506040513d6000823e3d601f19601f82011682018060405250602081101562001faa57600080fd5b81019080805164010000000081111562001fc357600080fd5b8281019050602081018481111562001fda57600080fd5b815185600182028301116401000000008211171562001ff857600080fd5b50509291905050509350935093506200200d565b5b5093509350939050565b6003818154811015156200202757fe5b906000526020600020016000915054906101000a900473ffffffffffffffffffffffffffffffffffffffff1681565b60606000806000879250866040518082805190602001908083835b60208310151562002098578051825260208201915060208101905060208303925062002071565b6001836020036101000a03801982511681845116808217855250505050505090500191505060405180910390206040518082600019166000191681526020019150506040518091039020600019168373ffffffffffffffffffffffffffffffffffffffff1663459ac33a6040518163ffffffff167c0100000000000000000000000000000000000000000000000000000000028152600401600060405180830381600087803b1580156200214b57600080fd5b505af115801562002160573d6000803e3d6000fd5b505050506040513d6000823e3d601f19601f8201168201806040525060208110156200218b57600080fd5b810190808051640100000000811115620021a457600080fd5b82810190506020810184811115620021bb57600080fd5b8151856001820283011164010000000082111715620021d957600080fd5b50509291905050506040518082805190602001908083835b602083101515620022185780518252602082019150602081019050602083039250620021f1565b6001836020036101000a038019825116818451168082178552505050505050905001915050604051809103902060001916148015620022fc5750600015158373ffffffffffffffffffffffffffffffffffffffff1663acffb62f6040518163ffffffff167c0100000000000000000000000000000000000000000000000000000000028152600401602060405180830381600087803b158015620022bb57600080fd5b505af1158015620022d0573d6000803e3d6000fd5b505050506040513d6020811015620022e757600080fd5b81019080805190602001909291905050501515145b156200282b578591508173ffffffffffffffffffffffffffffffffffffffff16632803da88898573ffffffffffffffffffffffffffffffffffffffff166317d7de7c6040518163ffffffff167c0100000000000000000000000000000000000000000000000000000000028152600401600060405180830381600087803b1580156200238757600080fd5b505af11580156200239c573d6000803e3d6000fd5b505050506040513d6000823e3d601f19601f820116820180604052506020811015620023c757600080fd5b810190808051640100000000811115620023e057600080fd5b82810190506020810184811115620023f757600080fd5b81518560018202830111640100000000821117156200241557600080fd5b50509291905050506040518363ffffffff167c0100000000000000000000000000000000000000000000000000000000028152600401808373ffffffffffffffffffffffffffffffffffffffff1673ffffffffffffffffffffffffffffffffffffffff1681526020018060200180602001838103835284818151815260200191508051906020019080838360005b83811015620024c0578082015181840152602081019050620024a3565b50505050905090810190601f168015620024ee5780820380516001836020036101000a031916815260200191505b50838103825260088152602001807f5665726966696564000000000000000000000000000000000000000000000000815250602001945050505050600060405180830381600087803b1580156200254457600080fd5b505af115801562002559573d6000803e3d6000fd5b505050508173ffffffffffffffffffffffffffffffffffffffff16630bdd478260006040518263ffffffff167c01000000000000000000000000000000000000000000000000000000000281526004018082151515158152602001915050600060405180830381600087803b158015620025d257600080fd5b505af1158015620025e7573d6000803e3d6000fd5b50505050600485815481101515620025fb57fe5b9060005260206000209060020201600080820160006101000a81549073ffffffffffffffffffffffffffffffffffffffff021916905560018201600062002643919062003e78565b50508490505b60016004805490500381101562002773576004600182018154811015156200266d57fe5b906000526020600020906002020160000160009054906101000a900473ffffffffffffffffffffffffffffffffffffffff16600482815481101515620026af57fe5b906000526020600020906002020160000160006101000a81548173ffffffffffffffffffffffffffffffffffffffff021916908373ffffffffffffffffffffffffffffffffffffffff1602179055506004600182018154811015156200271157fe5b90600052602060002090600202016001016004828154811015156200273257fe5b906000526020600020906002020160010190805460018160011615610100020316600290046200276492919062003ec4565b50808060010191505062002649565b60046001600480549050038154811015156200278b57fe5b9060005260206000209060020201600080820160006101000a81549073ffffffffffffffffffffffffffffffffffffffff0219169055600182016000620027d3919062003e78565b50506004805480919060019003620027ec919062003f52565b506040805190810160405280600881526020017f566572696669656400000000000000000000000000000000000000000000000081525093506200282c565b5b505050949350505050565b6000806000600189896200284a62003f87565b80841515151581526020018060200180602001838103835285818151815260200191508051906020019080838360005b83811015620028975780820151818401526020810190506200287a565b50505050905090810190601f168015620028c55780820380516001836020036101000a031916815260200191505b50838103825284818151815260200191508051906020019080838360005b8381101562002900578082015181840152602081019050620028e3565b50505050905090810190601f1680156200292e5780820380516001836020036101000a031916815260200191505b5095505050505050604051809103906000f08015801562002953573d6000803e3d6000fd5b5091507f63b46f3231a83ee49e61d489b67cb93cbfec5c7d8f1ee7b99320a356887f6f9f82604051808273ffffffffffffffffffffffffffffffffffffffff1673ffffffffffffffffffffffffffffffffffffffff16815260200191505060405180910390a18190508073ffffffffffffffffffffffffffffffffffffffff1663f07513eb886040518263ffffffff167c01000000000000000000000000000000000000000000000000000000000281526004018080602001828103825283818151815260200191508051906020019080838360005b8381101562002a4657808201518184015260208101905062002a29565b50505050905090810190601f16801562002a745780820380516001836020036101000a031916815260200191505b5092505050600060405180830381600087803b15801562002a9457600080fd5b505af115801562002aa9573d6000803e3d6000fd5b505050508073ffffffffffffffffffffffffffffffffffffffff1663282b065a876040518263ffffffff167c01000000000000000000000000000000000000000000000000000000000281526004018080602001828103825283818151815260200191508051906020019080838360005b8381101562002b3757808201518184015260208101905062002b1a565b50505050905090810190601f16801562002b655780820380516001836020036101000a031916815260200191505b5092505050600060405180830381600087803b15801562002b8557600080fd5b505af115801562002b9a573d6000803e3d6000fd5b505050508073ffffffffffffffffffffffffffffffffffffffff1663dd9e54b3866040518263ffffffff167c01000000000000000000000000000000000000000000000000000000000281526004018080602001828103825283818151815260200191508051906020019080838360005b8381101562002c2857808201518184015260208101905062002c0b565b50505050905090810190601f16801562002c565780820380516001836020036101000a031916815260200191505b5092505050600060405180830381600087803b15801562002c7657600080fd5b505af115801562002c8b573d6000803e3d6000fd5b505050508073ffffffffffffffffffffffffffffffffffffffff1663862b2a62856040518263ffffffff167c01000000000000000000000000000000000000000000000000000000000281526004018080602001828103825283818151815260200191508051906020019080838360005b8381101562002d1957808201518184015260208101905062002cfc565b50505050905090810190601f16801562002d475780820380516001836020036101000a031916815260200191505b5092505050600060405180830381600087803b15801562002d6757600080fd5b505af115801562002d7c573d6000803e3d6000fd5b5050505060016000815480929190600101919050555081925050509695505050505050565b60008060008091508390508073ffffffffffffffffffffffffffffffffffffffff166374a33a446040518163ffffffff167c0100000000000000000000000000000000000000000000000000000000028152600401602060405180830381600087803b15801562002e1157600080fd5b505af115801562002e26573d6000803e3d6000fd5b505050506040513d602081101562002e3d57600080fd5b810190808051906020019092919050505091508192505050919050565b60025481565b6000806000848462002e7162003f87565b80841515151581526020018060200180602001838103835285818151815260200191508051906020019080838360005b8381101562002ebe57808201518184015260208101905062002ea1565b50505050905090810190601f16801562002eec5780820380516001836020036101000a031916815260200191505b50838103825284818151815260200191508051906020019080838360005b8381101562002f2757808201518184015260208101905062002f0a565b50505050905090810190601f16801562002f555780820380516001836020036101000a031916815260200191505b5095505050505050604051809103906000f08015801562002f7a573d6000803e3d6000fd5b5090507ff094203935334a1ae251d032241e52de5ddd57341306b2991fe95f4ef0db964981604051808273ffffffffffffffffffffffffffffffffffffffff1673ffffffffffffffffffffffffffffffffffffffff16815260200191505060405180910390a160038190806001815401808255809150509060018203906000526020600020016000909192909190916101000a81548173ffffffffffffffffffffffffffffffffffffffff021916908373ffffffffffffffffffffffffffffffffffffffff160217905550506002600081548092919060010191905055508091505092915050565b6004818154811015156200307257fe5b90600052602060002090600202016000915090508060000160009054906101000a900473ffffffffffffffffffffffffffffffffffffffff1690806001018054600181600116156101000203166002900480601f016020809104026020016040519081016040528092919081815260200182805460018160011615610100020316600290048015620031485780601f106200311c5761010080835404028352916020019162003148565b820191906000526020600020905b8154815290600101906020018083116200312a57829003601f168201915b5050505050905082565b6000600480549050905080905090565b60006060806060806060600080899050886040518082805190602001908083835b602083101515620031aa578051825260208201915060208101905060208303925062003183565b6001836020036101000a03801982511681845116808217855250505050505090500191505060405180910390206040518082600019166000191681526020019150506040518091039020600019168173ffffffffffffffffffffffffffffffffffffffff1663459ac33a6040518163ffffffff167c0100000000000000000000000000000000000000000000000000000000028152600401600060405180830381600087803b1580156200325d57600080fd5b505af115801562003272573d6000803e3d6000fd5b505050506040513d6000823e3d601f19601f8201168201806040525060208110156200329d57600080fd5b810190808051640100000000811115620032b657600080fd5b82810190506020810184811115620032cd57600080fd5b8151856001820283011164010000000082111715620032eb57600080fd5b50509291905050506040518082805190602001908083835b6020831015156200332a578051825260208201915060208101905060208303925062003303565b6001836020036101000a0380198251168184511680821785525050505050509050019150506040518091039020600019161415156200336857600080fd5b8073ffffffffffffffffffffffffffffffffffffffff1663acffb62f6040518163ffffffff167c0100000000000000000000000000000000000000000000000000000000028152600401602060405180830381600087803b158015620033cd57600080fd5b505af1158015620033e2573d6000803e3d6000fd5b505050506040513d6020811015620033f957600080fd5b81019080805190602001909291905050508173ffffffffffffffffffffffffffffffffffffffff166317d7de7c6040518163ffffffff167c0100000000000000000000000000000000000000000000000000000000028152600401600060405180830381600087803b1580156200346f57600080fd5b505af115801562003484573d6000803e3d6000fd5b505050506040513d6000823e3d601f19601f820116820180604052506020811015620034af57600080fd5b810190808051640100000000811115620034c857600080fd5b82810190506020810184811115620034df57600080fd5b8151856001820283011164010000000082111715620034fd57600080fd5b50509291905050508273ffffffffffffffffffffffffffffffffffffffff16637e79e8ba6040518163ffffffff167c0100000000000000000000000000000000000000000000000000000000028152600401600060405180830381600087803b1580156200356a57600080fd5b505af11580156200357f573d6000803e3d6000fd5b505050506040513d6000823e3d601f19601f820116820180604052506020811015620035aa57600080fd5b810190808051640100000000811115620035c357600080fd5b82810190506020810184811115620035da57600080fd5b8151856001820283011164010000000082111715620035f857600080fd5b50509291905050508373ffffffffffffffffffffffffffffffffffffffff16637211d5236040518163ffffffff167c0100000000000000000000000000000000000000000000000000000000028152600401600060405180830381600087803b1580156200366557600080fd5b505af11580156200367a573d6000803e3d6000fd5b505050506040513d6000823e3d601f19601f820116820180604052506020811015620036a557600080fd5b810190808051640100000000811115620036be57600080fd5b82810190506020810184811115620036d557600080fd5b8151856001820283011164010000000082111715620036f357600080fd5b50509291905050508473ffffffffffffffffffffffffffffffffffffffff16630379915d6040518163ffffffff167c0100000000000000000000000000000000000000000000000000000000028152600401600060405180830381600087803b1580156200376057600080fd5b505af115801562003775573d6000803e3d6000fd5b505050506040513d6000823e3d601f19601f820116820180604052506020811015620037a057600080fd5b810190808051640100000000811115620037b957600080fd5b82810190506020810184811115620037d057600080fd5b8151856001820283011164010000000082111715620037ee57600080fd5b50509291905050508573ffffffffffffffffffffffffffffffffffffffff16639ece9eb86040518163ffffffff167c0100000000000000000000000000000000000000000000000000000000028152600401600060405180830381600087803b1580156200385b57600080fd5b505af115801562003870573d6000803e3d6000fd5b505050506040513d6000823e3d601f19601f8201168201806040525060208110156200389b57600080fd5b810190808051640100000000811115620038b457600080fd5b82810190506020810184811115620038cb57600080fd5b8151856001820283011164010000000082111715620038e957600080fd5b50509291905050508673ffffffffffffffffffffffffffffffffffffffff16639e2b39836040518163ffffffff167c0100000000000000000000000000000000000000000000000000000000028152600401602060405180830381600087803b1580156200395657600080fd5b505af11580156200396b573d6000803e3d6000fd5b505050506040513d60208110156200398257600080fd5b810190808051906020019092919050505097509750975097509750975097505092959891949750929550565b60606000839050826040518082805190602001908083835b602083101515620039ed5780518252602082019150602081019050602083039250620039c6565b6001836020036101000a03801982511681845116808217855250505050505090500191505060405180910390206040518082600019166000191681526020019150506040518091039020600019168173ffffffffffffffffffffffffffffffffffffffff1663459ac33a6040518163ffffffff167c0100000000000000000000000000000000000000000000000000000000028152600401600060405180830381600087803b15801562003aa057600080fd5b505af115801562003ab5573d6000803e3d6000fd5b505050506040513d6000823e3d601f19601f82011682018060405250602081101562003ae057600080fd5b81019080805164010000000081111562003af957600080fd5b8281019050602081018481111562003b1057600080fd5b815185600182028301116401000000008211171562003b2e57600080fd5b50509291905050506040518082805190602001908083835b60208310151562003b6d578051825260208201915060208101905060208303925062003b46565b6001836020036101000a03801982511681845116808217855250505050505090500191505060405180910390206000191614801562003c515750600015158173ffffffffffffffffffffffffffffffffffffffff16639e2b39836040518163ffffffff167c0100000000000000000000000000000000000000000000000000000000028152600401602060405180830381600087803b15801562003c1057600080fd5b505af115801562003c25573d6000803e3d6000fd5b505050506040513d602081101562003c3c57600080fd5b81019080805190602001909291905050501515145b1562003e7057600460408051908101604052808373ffffffffffffffffffffffffffffffffffffffff1663d35abe036040518163ffffffff167c0100000000000000000000000000000000000000000000000000000000028152600401602060405180830381600087803b15801562003cc957600080fd5b505af115801562003cde573d6000803e3d6000fd5b505050506040513d602081101562003cf557600080fd5b810190808051906020019092919050505073ffffffffffffffffffffffffffffffffffffffff168152602001858152509080600181540180825580915050906001820390600052602060002090600202016000909192909190915060008201518160000160006101000a81548173ffffffffffffffffffffffffffffffffffffffff021916908373ffffffffffffffffffffffffffffffffffffffff160217905550602082015181600101908051906020019062003db592919062003f98565b5050505060008081548092919060010191905055507f2844c95bf1b4598da931d527f903501abc60fe0199c65da52d5ce818c6c5e9616040518080602001828103825260168152602001807f4170706c69636174696f6e205375636365737366756c0000000000000000000081525060200191505060405180910390a16040805190810160405280600b81526020017f5375636365737366756c6c000000000000000000000000000000000000000000815250915062003e71565b5b5092915050565b50805460018160011615610100020316600290046000825580601f1062003ea0575062003ec1565b601f01602090049060005260206000209081019062003ec091906200401f565b5b50565b828054600181600116156101000203166002900490600052602060002090601f016020900481019282601f1062003eff578054855562003f3f565b8280016001018555821562003f3f57600052602060002091601f016020900482015b8281111562003f3e57825482559160010191906001019062003f21565b5b50905062003f4e91906200401f565b5090565b81548183558181111562003f825760020281600202836000526020600020918201910162003f81919062004047565b5b505050565b6040516119dd80620040a383390190565b828054600181600116156101000203166002900490600052602060002090601f016020900481019282601f1062003fdb57805160ff19168380011785556200400c565b828001600101855582156200400c579182015b828111156200400b57825182559160200191906001019062003fee565b5b5090506200401b91906200401f565b5090565b6200404491905b808211156200404057600081600090555060010162004026565b5090565b90565b6200409f91905b808211156200409b57600080820160006101000a81549073ffffffffffffffffffffffffffffffffffffffff021916905560018201600062004091919062003e78565b506002016200404e565b5090565b90560060806040523480156200001157600080fd5b50604051620019dd380380620019dd833981018060405281019080805190602001909291908051820192919060200180518201929190505050826000806101000a81548160ff02191690831515021790555081600190805190602001906200007b9291906200020a565b508060029080519060200190620000949291906200020a565b506000600760006101000a81548160ff02191690831515021790555060086060604051908101604052803073ffffffffffffffffffffffffffffffffffffffff1681526020016040805190810160405280601581526020017f49444d532d53656c662d456e646f7273656d656e74000000000000000000000081525081526020016040805190810160405280600881526020017f56657269666965640000000000000000000000000000000000000000000000008152508152509080600181540180825580915050906001820390600052602060002090600302016000909192909190915060008201518160000160006101000a81548173ffffffffffffffffffffffffffffffffffffffff021916908373ffffffffffffffffffffffffffffffffffffffff1602179055506020820151816001019080519060200190620001de92919062000291565b506040820151816002019080519060200190620001fd92919062000291565b5050505050505062000340565b828054600181600116156101000203166002900490600052602060002090601f016020900481019282601f106200024d57805160ff19168380011785556200027e565b828001600101855582156200027e579182015b828111156200027d57825182559160200191906001019062000260565b5b5090506200028d919062000318565b5090565b828054600181600116156101000203166002900490600052602060002090601f016020900481019282601f10620002d457805160ff191683800117855562000305565b8280016001018555821562000305579182015b8281111562000304578251825591602001919060010190620002e7565b5b50905062000314919062000318565b5090565b6200033d91905b80821115620003395760008160009055506001016200031f565b5090565b90565b61168d80620003506000396000f30060806040526004361061011d576000357c0100000000000000000000000000000000000000000000000000000000900463ffffffff1680630379915d1461012257806307f283ff146101b25780630bdd47821461025857806317d7de7c146102875780631e2a83bb146103175780632803da881461045c578063282b065a1461052b578063459ac33a146105945780637211d5231461062457806374a33a44146106b45780637e79e8ba146106df578063862b2a621461076f5780638828a675146107d85780639e2b3983146108825780639ece9eb8146108b1578063acffb62f14610941578063cf4b8c1c14610970578063d35abe03146109dd578063dd9e54b314610a34578063f07513eb14610a9d578063fecdd81a14610b06575b600080fd5b34801561012e57600080fd5b50610137610bac565b6040518080602001828103825283818151815260200191508051906020019080838360005b8381101561017757808201518184015260208101905061015c565b50505050905090810190601f1680156101a45780820380516001836020036101000a031916815260200191505b509250505060405180910390f35b3480156101be57600080fd5b506101dd60048036038101908080359060200190929190505050610c4e565b6040518080602001828103825283818151815260200191508051906020019080838360005b8381101561021d578082015181840152602081019050610202565b50505050905090810190601f16801561024a5780820380516001836020036101000a031916815260200191505b509250505060405180910390f35b34801561026457600080fd5b50610285600480360381019080803515159060200190929190505050610d10565b005b34801561029357600080fd5b5061029c610d2d565b6040518080602001828103825283818151815260200191508051906020019080838360005b838110156102dc5780820151818401526020810190506102c1565b50505050905090810190601f1680156103095780820380516001836020036101000a031916815260200191505b509250505060405180910390f35b34801561032357600080fd5b5061034260048036038101908080359060200190929190505050610dcf565b604051808473ffffffffffffffffffffffffffffffffffffffff1673ffffffffffffffffffffffffffffffffffffffff1681526020018060200180602001838103835285818151815260200191508051906020019080838360005b838110156103b857808201518184015260208101905061039d565b50505050905090810190601f1680156103e55780820380516001836020036101000a031916815260200191505b50838103825284818151815260200191508051906020019080838360005b8381101561041e578082015181840152602081019050610403565b50505050905090810190601f16801561044b5780820380516001836020036101000a031916815260200191505b509550505050505060405180910390f35b34801561046857600080fd5b50610529600480360381019080803573ffffffffffffffffffffffffffffffffffffffff169060200190929190803590602001908201803590602001908080601f0160208091040260200160405190810160405280939291908181526020018383808284378201915050505050509192919290803590602001908201803590602001908080601f0160208091040260200160405190810160405280939291908181526020018383808284378201915050505050509192919290505050610f58565b005b34801561053757600080fd5b50610592600480360381019080803590602001908201803590602001908080601f0160208091040260200160405190810160405280939291908181526020018383808284378201915050505050509192919290505050611040565b005b3480156105a057600080fd5b506105a961105a565b6040518080602001828103825283818151815260200191508051906020019080838360005b838110156105e95780820151818401526020810190506105ce565b50505050905090810190601f1680156106165780820380516001836020036101000a031916815260200191505b509250505060405180910390f35b34801561063057600080fd5b506106396110d3565b6040518080602001828103825283818151815260200191508051906020019080838360005b8381101561067957808201518184015260208101905061065e565b50505050905090810190601f1680156106a65780820380516001836020036101000a031916815260200191505b509250505060405180910390f35b3480156106c057600080fd5b506106c9611175565b6040518082815260200191505060405180910390f35b3480156106eb57600080fd5b506106f4611182565b6040518080602001828103825283818151815260200191508051906020019080838360005b83811015610734578082015181840152602081019050610719565b50505050905090810190601f1680156107615780820380516001836020036101000a031916815260200191505b509250505060405180910390f35b34801561077b57600080fd5b506107d6600480360381019080803590602001908201803590602001908080601f0160208091040260200160405190810160405280939291908181526020018383808284378201915050505050509192919290505050611224565b005b3480156107e457600080fd5b50610807600480360381019080803560001916906020019092919050505061123e565b6040518080602001828103825283818151815260200191508051906020019080838360005b8381101561084757808201518184015260208101905061082c565b50505050905090810190601f1680156108745780820380516001836020036101000a031916815260200191505b509250505060405180910390f35b34801561088e57600080fd5b5061089761130a565b604051808215151515815260200191505060405180910390f35b3480156108bd57600080fd5b506108c6611321565b6040518080602001828103825283818151815260200191508051906020019080838360005b838110156109065780820151818401526020810190506108eb565b50505050905090810190601f1680156109335780820380516001836020036101000a031916815260200191505b509250505060405180910390f35b34801561094d57600080fd5b506109566113c3565b604051808215151515815260200191505060405180910390f35b34801561097c57600080fd5b5061099b600480360381019080803590602001909291905050506113d9565b604051808273ffffffffffffffffffffffffffffffffffffffff1673ffffffffffffffffffffffffffffffffffffffff16815260200191505060405180910390f35b3480156109e957600080fd5b506109f2611423565b604051808273ffffffffffffffffffffffffffffffffffffffff1673ffffffffffffffffffffffffffffffffffffffff16815260200191505060405180910390f35b348015610a4057600080fd5b50610a9b600480360381019080803590602001908201803590602001908080601f0160208091040260200160405190810160405280939291908181526020018383808284378201915050505050509192919290505050611446565b005b348015610aa957600080fd5b50610b04600480360381019080803590602001908201803590602001908080601f0160208091040260200160405190810160405280939291908181526020018383808284378201915050505050509192919290505050611460565b005b348015610b1257600080fd5b50610b316004803603810190808035906020019092919050505061147a565b6040518080602001828103825283818151815260200191508051906020019080838360005b83811015610b71578082015181840152602081019050610b56565b50505050905090810190601f168015610b9e5780820380516001836020036101000a031916815260200191505b509250505060405180910390f35b606060038054600181600116156101000203166002900480601f016020809104026020016040519081016040528092919081815260200182805460018160011615610100020316600290048015610c445780601f10610c1957610100808354040283529160200191610c44565b820191906000526020600020905b815481529060010190602001808311610c2757829003601f168201915b5050505050905090565b6060600882815481101515610c5f57fe5b90600052602060002090600302016001018054600181600116156101000203166002900480601f016020809104026020016040519081016040528092919081815260200182805460018160011615610100020316600290048015610d045780601f10610cd957610100808354040283529160200191610d04565b820191906000526020600020905b815481529060010190602001808311610ce757829003601f168201915b50505050509050919050565b80600760006101000a81548160ff02191690831515021790555050565b606060018054600181600116156101000203166002900480601f016020809104026020016040519081016040528092919081815260200182805460018160011615610100020316600290048015610dc55780601f10610d9a57610100808354040283529160200191610dc5565b820191906000526020600020905b815481529060010190602001808311610da857829003601f168201915b5050505050905090565b600881815481101515610dde57fe5b90600052602060002090600302016000915090508060000160009054906101000a900473ffffffffffffffffffffffffffffffffffffffff1690806001018054600181600116156101000203166002900480601f016020809104026020016040519081016040528092919081815260200182805460018160011615610100020316600290048015610eb05780601f10610e8557610100808354040283529160200191610eb0565b820191906000526020600020905b815481529060010190602001808311610e9357829003601f168201915b505050505090806002018054600181600116156101000203166002900480601f016020809104026020016040519081016040528092919081815260200182805460018160011615610100020316600290048015610f4e5780601f10610f2357610100808354040283529160200191610f4e565b820191906000526020600020905b815481529060010190602001808311610f3157829003601f168201915b5050505050905083565b60086060604051908101604052808573ffffffffffffffffffffffffffffffffffffffff168152602001848152602001838152509080600181540180825580915050906001820390600052602060002090600302016000909192909190915060008201518160000160006101000a81548173ffffffffffffffffffffffffffffffffffffffff021916908373ffffffffffffffffffffffffffffffffffffffff160217905550602082015181600101908051906020019061101a92919061153c565b50604082015181600201908051906020019061103792919061153c565b50505050505050565b80600490805190602001906110569291906115bc565b5050565b60606110ce600260405180828054600181600116156101000203166002900480156110bc5780601f1061109a5761010080835404028352918201916110bc565b820191906000526020600020905b8154815290600101906020018083116110a8575b5050915050604051809103902061123e565b905090565b606060058054600181600116156101000203166002900480601f01602080910402602001604051908101604052809291908181526020018280546001816001161561010002031660029004801561116b5780601f106111405761010080835404028352916020019161116b565b820191906000526020600020905b81548152906001019060200180831161114e57829003601f168201915b5050505050905090565b6000600880549050905090565b606060048054600181600116156101000203166002900480601f01602080910402602001604051908101604052809291908181526020018280546001816001161561010002031660029004801561121a5780601f106111ef5761010080835404028352916020019161121a565b820191906000526020600020905b8154815290600101906020018083116111fd57829003601f168201915b5050505050905090565b806006908051906020019061123a9291906115bc565b5050565b606080600060206040519080825280601f01601f1916602001820160405280156112775781602001602082028038833980820191505090505b5091505b602081101561130057838160208110151561129257fe5b1a7f01000000000000000000000000000000000000000000000000000000000000000282828151811015156112c357fe5b9060200101907effffffffffffffffffffffffffffffffffffffffffffffffffffffffffffff1916908160001a905350808060010191505061127b565b8192505050919050565b6000600760009054906101000a900460ff16905090565b606060068054600181600116156101000203166002900480601f0160208091040260200160405190810160405280929190818152602001828054600181600116156101000203166002900480156113b95780601f1061138e576101008083540402835291602001916113b9565b820191906000526020600020905b81548152906001019060200180831161139c57829003601f168201915b5050505050905090565b60008060009054906101000a900460ff16905090565b60006008828154811015156113ea57fe5b906000526020600020906003020160000160009054906101000a900473ffffffffffffffffffffffffffffffffffffffff169050919050565b60006001600760006101000a81548160ff02191690831515021790555030905090565b806005908051906020019061145c9291906115bc565b5050565b80600390805190602001906114769291906115bc565b5050565b606060088281548110151561148b57fe5b90600052602060002090600302016002018054600181600116156101000203166002900480601f0160208091040260200160405190810160405280929190818152602001828054600181600116156101000203166002900480156115305780601f1061150557610100808354040283529160200191611530565b820191906000526020600020905b81548152906001019060200180831161151357829003601f168201915b50505050509050919050565b828054600181600116156101000203166002900490600052602060002090601f016020900481019282601f1061157d57805160ff19168380011785556115ab565b828001600101855582156115ab579182015b828111156115aa57825182559160200191906001019061158f565b5b5090506115b8919061163c565b5090565b828054600181600116156101000203166002900490600052602060002090601f016020900481019282601f106115fd57805160ff191683800117855561162b565b8280016001018555821561162b579182015b8281111561162a57825182559160200191906001019061160f565b5b509050611638919061163c565b5090565b61165e91905b8082111561165a576000816000905550600101611642565b5090565b905600a165627a7a72305820aa735bc6e5c0cc46d4a1e82cfd426908e868652bcc3850902da676c41a4476220029a165627a7a723058207c57e2e479f7bff8510212e71afdfde2636e8874b229b749d50c9f01bd784b080029",
  "source": "pragma solidity ^0.4.24;\n\ncontract SimpleContract{\n    uint EndorsementListPosition;\n    uint public numberOfUserAccounts;\n    uint public numberOfEndorserAccounts;\n    \n    event AllotedAddress(address AllotedAddress);\n    event AllotedAddressEndorser(address AllotedAddressEndorser);\n    \n    constructor(){\n        numberOfUserAccounts = 0;\n        numberOfEndorserAccounts=0;\n        EndorsementListPosition = 0;\n        \n    }\n    \n    \n    function createUserAccount(string name, string password, string city,string email,string DOB,string nId) returns(address){\n        \n        address a = new User(true, name, password);\n        AllotedAddress(a);\n        User user = User(a);\n        user.setCity(city);\n        //user.setCountry(country);\n        user.setEmail(email);\n        user.setDOB(DOB);\n        user.setNationalId(nId);\n        numberOfUserAccounts++;\n        \n        return a;\n    }\n    \n    \n    function getDetails(address addr, string pw) returns(bool,string,string,string,string,string,bool){\n        User user = User(addr);\n        require(keccak256(user.getPassordHash())==keccak256(keccak256(pw)));\n        return (user.getTypeOfUser(),user.getName(),user.getEmail(),user.getDOB(),user.getCity(),user.getNationalId(),user.getEndorsementStatus());\n        \n        \n        \n    }\n    struct AppliedEndorsement{\n        address AppliedBy;\n        string appliedByPw;\n    }\n    \n    address[] public Endorsers;\n    AppliedEndorsement[] public AppliedEndorsementList;\n    \n    function createEndorser(string name, string pw)returns(address){\n        address a = new User(false, name, pw);\n        AllotedAddressEndorser(a);\n        Endorsers.push(a);\n        numberOfEndorserAccounts++;\n        return a;\n    }\n    event Status(string status);\n    \n    function applyForEndorsemntMain(address addr, string pw)returns (string){\n        User user = User(addr);\n        if(keccak256(user.getPassordHash())==keccak256(keccak256(pw)) && user.getEndorsementStatus()==false){\n        AppliedEndorsementList.push(AppliedEndorsement(user.applyForEndorsement(),pw));\n        EndorsementListPosition++;\n        Status(\"Application Successful\");\n        return (\"Successfull\");\n\n        }\n    }\n    function getNumberofAppliedEndorsementCurrent() returns(uint256 a){\n        a = AppliedEndorsementList.length;\n        return a;\n    }\n    function getAllAppliedEndorsements(address addr, string pw, uint position)returns(address,string){\n        User user = User(addr);\n        if(keccak256(user.getPassordHash())==keccak256(keccak256(pw)) && user.getTypeOfUser()==false){\n          \n            return (AppliedEndorsementList[position].AppliedBy,AppliedEndorsementList[position].appliedByPw);\n        }\n        else{\n            return (0xc00000000000002088730c353a52cc3fa157fbdf,\"123\");\n        }\n    \n    }\n    \n    \n    \n    // }\n    \n    function EndorsementVerified(address addr, string pw,address uaddr, uint256 id) returns(string){ // here endorsers address and pw are required\n        User user = User(addr);\n        if(keccak256(user.getPassordHash())==keccak256(keccak256(pw)) && user.getTypeOfUser()==false){\n            User userU = User(uaddr);\n            userU.AddEndorsement(addr,user.getName(),\"Verified\");\n            userU.setEndorsementStatus(false);\n            delete AppliedEndorsementList[id];\n            for(uint i=id; i<AppliedEndorsementList.length-1;i++){\n\n                AppliedEndorsementList[i].AppliedBy = AppliedEndorsementList[i+1].AppliedBy;\n                AppliedEndorsementList[i].appliedByPw = AppliedEndorsementList[i+1].appliedByPw;\n\n            }\n            delete AppliedEndorsementList[AppliedEndorsementList.length-1];\n            AppliedEndorsementList.length--;\n            return (\"Verified\");\n\n\n            //AppliedEndorsementList[id].AppliedBy = 0x00000000000000000000000000000000000000;\n            //AppliedEndorsementList[id].appliedByPw = \"\";\n\n\n\n            // removing from list\n            // for(uint i= id; i<AppliedEndorsementList.length;i++){\n            //     AppliedEndorsementList[i].AppliedBy=AppliedEndorsementList[i+1].AppliedBy;\n            //     AppliedEndorsementList[i].appliedByPw = AppliedEndorsementList[i+1].appliedByPw;\n            // }\n            // AppliedEndorsementList.length = AppliedEndorsementList.length -1;\n        }\n     }\n    function EndorsementRejected(address addr, string pw,address uaddr, uint256 id)returns (string){ // here endorsers address and pw are required\n        User user = User(addr);\n        if(keccak256(user.getPassordHash())==keccak256(keccak256(pw)) && user.getTypeOfUser()==false){\n            User userU = User(uaddr);\n            userU.AddEndorsement(addr,user.getName(),\"Rejected\");\n            userU.setEndorsementStatus(false);\n            delete AppliedEndorsementList[id];\n            for(uint i=id; i<AppliedEndorsementList.length-1;i++){\n\n                AppliedEndorsementList[i].AppliedBy = AppliedEndorsementList[i+1].AppliedBy;\n                AppliedEndorsementList[i].appliedByPw = AppliedEndorsementList[i+1].appliedByPw;\n\n            }\n            delete AppliedEndorsementList[AppliedEndorsementList.length-1];\n            AppliedEndorsementList.length--;\n            return(\"Rejected\");\n\n            // removing from list\n            // for(uint i= id; i<AppliedEndorsementList.length;i++){\n            //     AppliedEndorsementList[i].AppliedBy=AppliedEndorsementList[i+1].AppliedBy;\n            //     AppliedEndorsementList[i].appliedByPw = AppliedEndorsementList[i+1].appliedByPw;\n            // }\n            // AppliedEndorsementList.length = AppliedEndorsementList.length -1;\n        }\n        \n    }\n    \n    //function for testing\n    // function createDefualtEndorsers(){\n    //     createEndorser(\"Haady\",\"123\");\n    //     createEndorser(\"Waleed\",\"123\");\n    //     createEndorser(\"Hasan\",\"123\");\n    // }\n\n    // function getEndorserFromList(uint n) returns (address){\n    //     if (n>Endorsers.length)\n    //     throw;\n\n    //     return Endorsers[n];\n\n    // }\n\n    function getNumberofEndorsementOfUser1(address addr)public constant returns(uint256){\n        uint256 n=0;\n        User user = User(addr);\n        n = user.getNumberofEndorsements();\n        return n;\n        \n        \n    }\n    function getEndorserFromUser(address addr, string pw, uint256 position)returns(address,string,string){\n        User user = User(addr);\n        if(keccak256(user.getPassordHash())==keccak256(keccak256(pw)) )\n        return(user.getEndorserAddFromPosition(position),user.getEndorserNameFromPosition(position),user.getEndorsementVerificationStatusFromPosition(position));\n    }\n    \n    \n    \n}\n\ncontract User{\n    bool typeOfUser; // true for User, false for endorser\n    string name;\n    string passwordHash;\n    \n    string city_country;\n    //string country;\n    string email;\n    string DOB;\n    string nationalId;\n    \n    bool EndorsmentStatus;\n    \n    struct EndorsmentDetails{\n        address EndorsedBy;\n        string Name;\n        string Verification;\n        \n    }\n    EndorsmentDetails[] public Endorsments;\n    \n    constructor(bool t, string n, string password){\n        typeOfUser = t;\n        name = n;\n        passwordHash = password;\n        EndorsmentStatus = false;\n        Endorsments.push(EndorsmentDetails(this,\"IDMS-Self-Endorsement\",\"Verified\"));\n        \n    }\n    function setCity(string c){\n        city_country = c;\n    }\n    // function setCountry(string cntry){\n    //     country = cntry;\n    // }\n    function setEmail(string em){\n        email = em;\n    }\n    function setDOB(string dob){\n        DOB = dob;\n        \n    }\n    function setEndorsementStatus(bool a){\n        EndorsmentStatus = a;\n    }\n    function setNationalId(string nid){\n        nationalId=nid;\n    }\n    function getNationalId() returns(string){\n        return nationalId;\n    }\n    \n    function getPassordHash() returns(string){\n        return bytes32toString(keccak256(passwordHash));\n    }\n    function getName() returns(string){\n        return name;\n    }\n    function getCity() returns(string){\n        return city_country;\n    }\n    // function getCountry() returns(string){\n    //     return country;\n    // }\n    function getEmail() returns (string){\n        return email;\n    }\n    function getDOB() returns( string ){\n        return DOB;\n    }\n    function getEndorsementStatus() returns(bool){\n        return EndorsmentStatus;\n    }\n    function getTypeOfUser()returns(bool){\n        return typeOfUser;\n    }\n    \n     function bytes32toString(bytes32 _bytes32) public constant returns(string){\n        bytes memory bytesArray = new bytes(32);\n        for(uint256 i; i<32;i++){\n            bytesArray[i]=_bytes32[i];\n        }\n        return string(bytesArray);\n    }\n    \n    function applyForEndorsement()returns(address){\n        EndorsmentStatus = true;\n        return this;\n    }\n    \n    function AddEndorsement(address addr,string name, string v){\n        Endorsments.push(EndorsmentDetails(addr,name,v));\n    }\n    \n    function getNumberofEndorsements()returns (uint256){\n        return Endorsments.length;\n    }\n    function getEndorserAddFromPosition(uint256 i) returns(address){\n        return Endorsments[i].EndorsedBy;\n    }\n    function getEndorserNameFromPosition(uint256 i) returns(string){\n        return Endorsments[i].Name;\n    }\n    function getEndorsementVerificationStatusFromPosition(uint256 i) returns(string){\n        return Endorsments[i].Verification;\n    }\n    \n}\n    \n    \n    \n\n\n\n\n\n\n\n\n\n\n\n\n\n\n\n\n\n// pragma solidity ^0.4.22;\n\n// contract SimpleContract {\n\n// \t    event showString(address AllotedAddress);\n    \n//     mapping (address => address) listofAccounts;\n\n//     function createWallet(bytes32 name, bytes32 age, bytes32 pAddres)returns (string){\n//         address a  = new Wallet(name, age, pAddres);\n//         showString(a);\n//         return toString(a);\n//     }\n        \n//         function getData(address adr) payable returns(bytes32, bytes32, bytes32){\n//             Wallet wallet = Wallet(adr);\n            \n            \n            \n//         return (wallet.getName(),wallet.getAge(),wallet.getAddress());\n        \n//     }\n\n//     function toString(address x)private returns (string) {\n//     bytes memory b = new bytes(20);\n//     for (uint i = 0; i < 20; i++)\n//         b[i] = byte(uint8(uint(x) / (2**(8*(19 - i)))));\n//     return string(b);\n//     }\n    \n// }\n// contract Wallet{\n//     event showStringWallet(bytes32 name, bytes32 age,bytes32 pAddress);\n    \n//     bytes32 name;\n//     bytes32 age;\n//     bytes32 pAddress;\n    \n//     function Wallet(bytes32 n, bytes32 a, bytes32 p){\n//         showStringWallet(n, a, p);\n//         name=n;\n//         age=a;\n//         pAddress=p;\n        \n\n//     }\n    \n//     function getName() returns(bytes32){\n//         return name;\n//     }\n//     function getAge() returns(bytes32){\n//         return age;\n//     }\n//     function getAddress() returns(bytes32){\n//         return pAddress;\n//     }\n    \n// }",
  "sourcePath": "C:\\Users\\Waleed\\Desktop\\TruffleAngularBox-master\\TruffleAngularBox-master\\contracts\\SimpleContract.sol",
  "compiler": {
    "name": "solc",
    "version": "0.4.24+commit.e67f0147.Emscripten.clang"
  },
  "schemaVersion": "2.0.0",
  "updatedAt": "2018-09-06T19:29:02.261Z"
}