{
  "contractName": "User",
  "abi": [
    {
      "constant": true,
      "inputs": [
        {
          "name": "",
          "type": "uint256"
        }
      ],
      "name": "Endorsments",
      "outputs": [
        {
          "name": "EndorsedBy",
          "type": "address"
        },
        {
          "name": "Name",
          "type": "string"
        },
        {
          "name": "Verification",
          "type": "string"
        }
      ],
      "payable": false,
      "stateMutability": "view",
      "type": "function"
    },
    {
      "inputs": [
        {
          "name": "t",
          "type": "bool"
        },
        {
          "name": "n",
          "type": "string"
        },
        {
          "name": "password",
          "type": "string"
        }
      ],
      "payable": false,
      "stateMutability": "nonpayable",
      "type": "constructor"
    },
    {
      "constant": false,
      "inputs": [
        {
          "name": "c",
          "type": "string"
        }
      ],
      "name": "setCity",
      "outputs": [],
      "payable": false,
      "stateMutability": "nonpayable",
      "type": "function"
    },
    {
      "constant": false,
      "inputs": [
        {
          "name": "em",
          "type": "string"
        }
      ],
      "name": "setEmail",
      "outputs": [],
      "payable": false,
      "stateMutability": "nonpayable",
      "type": "function"
    },
    {
      "constant": false,
      "inputs": [
        {
          "name": "dob",
          "type": "string"
        }
      ],
      "name": "setDOB",
      "outputs": [],
      "payable": false,
      "stateMutability": "nonpayable",
      "type": "function"
    },
    {
      "constant": false,
      "inputs": [
        {
          "name": "a",
          "type": "bool"
        }
      ],
      "name": "setEndorsementStatus",
      "outputs": [],
      "payable": false,
      "stateMutability": "nonpayable",
      "type": "function"
    },
    {
      "constant": false,
      "inputs": [
        {
          "name": "nid",
          "type": "string"
        }
      ],
      "name": "setNationalId",
      "outputs": [],
      "payable": false,
      "stateMutability": "nonpayable",
      "type": "function"
    },
    {
      "constant": false,
      "inputs": [],
      "name": "getNationalId",
      "outputs": [
        {
          "name": "",
          "type": "string"
        }
      ],
      "payable": false,
      "stateMutability": "nonpayable",
      "type": "function"
    },
    {
      "constant": false,
      "inputs": [],
      "name": "getPassordHash",
      "outputs": [
        {
          "name": "",
          "type": "string"
        }
      ],
      "payable": false,
      "stateMutability": "nonpayable",
      "type": "function"
    },
    {
      "constant": false,
      "inputs": [],
      "name": "getName",
      "outputs": [
        {
          "name": "",
          "type": "string"
        }
      ],
      "payable": false,
      "stateMutability": "nonpayable",
      "type": "function"
    },
    {
      "constant": false,
      "inputs": [],
      "name": "getCity",
      "outputs": [
        {
          "name": "",
          "type": "string"
        }
      ],
      "payable": false,
      "stateMutability": "nonpayable",
      "type": "function"
    },
    {
      "constant": false,
      "inputs": [],
      "name": "getEmail",
      "outputs": [
        {
          "name": "",
          "type": "string"
        }
      ],
      "payable": false,
      "stateMutability": "nonpayable",
      "type": "function"
    },
    {
      "constant": false,
      "inputs": [],
      "name": "getDOB",
      "outputs": [
        {
          "name": "",
          "type": "string"
        }
      ],
      "payable": false,
      "stateMutability": "nonpayable",
      "type": "function"
    },
    {
      "constant": false,
      "inputs": [],
      "name": "getEndorsementStatus",
      "outputs": [
        {
          "name": "",
          "type": "bool"
        }
      ],
      "payable": false,
      "stateMutability": "nonpayable",
      "type": "function"
    },
    {
      "constant": false,
      "inputs": [],
      "name": "getTypeOfUser",
      "outputs": [
        {
          "name": "",
          "type": "bool"
        }
      ],
      "payable": false,
      "stateMutability": "nonpayable",
      "type": "function"
    },
    {
      "constant": true,
      "inputs": [
        {
          "name": "_bytes32",
          "type": "bytes32"
        }
      ],
      "name": "bytes32toString",
      "outputs": [
        {
          "name": "",
          "type": "string"
        }
      ],
      "payable": false,
      "stateMutability": "view",
      "type": "function"
    },
    {
      "constant": false,
      "inputs": [],
      "name": "applyForEndorsement",
      "outputs": [
        {
          "name": "",
          "type": "address"
        }
      ],
      "payable": false,
      "stateMutability": "nonpayable",
      "type": "function"
    },
    {
      "constant": false,
      "inputs": [
        {
          "name": "addr",
          "type": "address"
        },
        {
          "name": "name",
          "type": "string"
        },
        {
          "name": "v",
          "type": "string"
        }
      ],
      "name": "AddEndorsement",
      "outputs": [],
      "payable": false,
      "stateMutability": "nonpayable",
      "type": "function"
    },
    {
      "constant": false,
      "inputs": [],
      "name": "getNumberofEndorsements",
      "outputs": [
        {
          "name": "",
          "type": "uint256"
        }
      ],
      "payable": false,
      "stateMutability": "nonpayable",
      "type": "function"
    },
    {
      "constant": false,
      "inputs": [
        {
          "name": "i",
          "type": "uint256"
        }
      ],
      "name": "getEndorserAddFromPosition",
      "outputs": [
        {
          "name": "",
          "type": "address"
        }
      ],
      "payable": false,
      "stateMutability": "nonpayable",
      "type": "function"
    },
    {
      "constant": false,
      "inputs": [
        {
          "name": "i",
          "type": "uint256"
        }
      ],
      "name": "getEndorserNameFromPosition",
      "outputs": [
        {
          "name": "",
          "type": "string"
        }
      ],
      "payable": false,
      "stateMutability": "nonpayable",
      "type": "function"
    },
    {
      "constant": false,
      "inputs": [
        {
          "name": "i",
          "type": "uint256"
        }
      ],
      "name": "getEndorsementVerificationStatusFromPosition",
      "outputs": [
        {
          "name": "",
          "type": "string"
        }
      ],
      "payable": false,
      "stateMutability": "nonpayable",
      "type": "function"
    }
  ],
  "bytecode": "0x60806040523480156200001157600080fd5b50604051620019dd380380620019dd833981018060405281019080805190602001909291908051820192919060200180518201929190505050826000806101000a81548160ff02191690831515021790555081600190805190602001906200007b9291906200020a565b508060029080519060200190620000949291906200020a565b506000600760006101000a81548160ff02191690831515021790555060086060604051908101604052803073ffffffffffffffffffffffffffffffffffffffff1681526020016040805190810160405280601581526020017f49444d532d53656c662d456e646f7273656d656e74000000000000000000000081525081526020016040805190810160405280600881526020017f56657269666965640000000000000000000000000000000000000000000000008152508152509080600181540180825580915050906001820390600052602060002090600302016000909192909190915060008201518160000160006101000a81548173ffffffffffffffffffffffffffffffffffffffff021916908373ffffffffffffffffffffffffffffffffffffffff1602179055506020820151816001019080519060200190620001de92919062000291565b506040820151816002019080519060200190620001fd92919062000291565b5050505050505062000340565b828054600181600116156101000203166002900490600052602060002090601f016020900481019282601f106200024d57805160ff19168380011785556200027e565b828001600101855582156200027e579182015b828111156200027d57825182559160200191906001019062000260565b5b5090506200028d919062000318565b5090565b828054600181600116156101000203166002900490600052602060002090601f016020900481019282601f10620002d457805160ff191683800117855562000305565b8280016001018555821562000305579182015b8281111562000304578251825591602001919060010190620002e7565b5b50905062000314919062000318565b5090565b6200033d91905b80821115620003395760008160009055506001016200031f565b5090565b90565b61168d80620003506000396000f30060806040526004361061011d576000357c0100000000000000000000000000000000000000000000000000000000900463ffffffff1680630379915d1461012257806307f283ff146101b25780630bdd47821461025857806317d7de7c146102875780631e2a83bb146103175780632803da881461045c578063282b065a1461052b578063459ac33a146105945780637211d5231461062457806374a33a44146106b45780637e79e8ba146106df578063862b2a621461076f5780638828a675146107d85780639e2b3983146108825780639ece9eb8146108b1578063acffb62f14610941578063cf4b8c1c14610970578063d35abe03146109dd578063dd9e54b314610a34578063f07513eb14610a9d578063fecdd81a14610b06575b600080fd5b34801561012e57600080fd5b50610137610bac565b6040518080602001828103825283818151815260200191508051906020019080838360005b8381101561017757808201518184015260208101905061015c565b50505050905090810190601f1680156101a45780820380516001836020036101000a031916815260200191505b509250505060405180910390f35b3480156101be57600080fd5b506101dd60048036038101908080359060200190929190505050610c4e565b6040518080602001828103825283818151815260200191508051906020019080838360005b8381101561021d578082015181840152602081019050610202565b50505050905090810190601f16801561024a5780820380516001836020036101000a031916815260200191505b509250505060405180910390f35b34801561026457600080fd5b50610285600480360381019080803515159060200190929190505050610d10565b005b34801561029357600080fd5b5061029c610d2d565b6040518080602001828103825283818151815260200191508051906020019080838360005b838110156102dc5780820151818401526020810190506102c1565b50505050905090810190601f1680156103095780820380516001836020036101000a031916815260200191505b509250505060405180910390f35b34801561032357600080fd5b5061034260048036038101908080359060200190929190505050610dcf565b604051808473ffffffffffffffffffffffffffffffffffffffff1673ffffffffffffffffffffffffffffffffffffffff1681526020018060200180602001838103835285818151815260200191508051906020019080838360005b838110156103b857808201518184015260208101905061039d565b50505050905090810190601f1680156103e55780820380516001836020036101000a031916815260200191505b50838103825284818151815260200191508051906020019080838360005b8381101561041e578082015181840152602081019050610403565b50505050905090810190601f16801561044b5780820380516001836020036101000a031916815260200191505b509550505050505060405180910390f35b34801561046857600080fd5b50610529600480360381019080803573ffffffffffffffffffffffffffffffffffffffff169060200190929190803590602001908201803590602001908080601f0160208091040260200160405190810160405280939291908181526020018383808284378201915050505050509192919290803590602001908201803590602001908080601f0160208091040260200160405190810160405280939291908181526020018383808284378201915050505050509192919290505050610f58565b005b34801561053757600080fd5b50610592600480360381019080803590602001908201803590602001908080601f0160208091040260200160405190810160405280939291908181526020018383808284378201915050505050509192919290505050611040565b005b3480156105a057600080fd5b506105a961105a565b6040518080602001828103825283818151815260200191508051906020019080838360005b838110156105e95780820151818401526020810190506105ce565b50505050905090810190601f1680156106165780820380516001836020036101000a031916815260200191505b509250505060405180910390f35b34801561063057600080fd5b506106396110d3565b6040518080602001828103825283818151815260200191508051906020019080838360005b8381101561067957808201518184015260208101905061065e565b50505050905090810190601f1680156106a65780820380516001836020036101000a031916815260200191505b509250505060405180910390f35b3480156106c057600080fd5b506106c9611175565b6040518082815260200191505060405180910390f35b3480156106eb57600080fd5b506106f4611182565b6040518080602001828103825283818151815260200191508051906020019080838360005b83811015610734578082015181840152602081019050610719565b50505050905090810190601f1680156107615780820380516001836020036101000a031916815260200191505b509250505060405180910390f35b34801561077b57600080fd5b506107d6600480360381019080803590602001908201803590602001908080601f0160208091040260200160405190810160405280939291908181526020018383808284378201915050505050509192919290505050611224565b005b3480156107e457600080fd5b50610807600480360381019080803560001916906020019092919050505061123e565b6040518080602001828103825283818151815260200191508051906020019080838360005b8381101561084757808201518184015260208101905061082c565b50505050905090810190601f1680156108745780820380516001836020036101000a031916815260200191505b509250505060405180910390f35b34801561088e57600080fd5b5061089761130a565b604051808215151515815260200191505060405180910390f35b3480156108bd57600080fd5b506108c6611321565b6040518080602001828103825283818151815260200191508051906020019080838360005b838110156109065780820151818401526020810190506108eb565b50505050905090810190601f1680156109335780820380516001836020036101000a031916815260200191505b509250505060405180910390f35b34801561094d57600080fd5b506109566113c3565b604051808215151515815260200191505060405180910390f35b34801561097c57600080fd5b5061099b600480360381019080803590602001909291905050506113d9565b604051808273ffffffffffffffffffffffffffffffffffffffff1673ffffffffffffffffffffffffffffffffffffffff16815260200191505060405180910390f35b3480156109e957600080fd5b506109f2611423565b604051808273ffffffffffffffffffffffffffffffffffffffff1673ffffffffffffffffffffffffffffffffffffffff16815260200191505060405180910390f35b348015610a4057600080fd5b50610a9b600480360381019080803590602001908201803590602001908080601f0160208091040260200160405190810160405280939291908181526020018383808284378201915050505050509192919290505050611446565b005b348015610aa957600080fd5b50610b04600480360381019080803590602001908201803590602001908080601f0160208091040260200160405190810160405280939291908181526020018383808284378201915050505050509192919290505050611460565b005b348015610b1257600080fd5b50610b316004803603810190808035906020019092919050505061147a565b6040518080602001828103825283818151815260200191508051906020019080838360005b83811015610b71578082015181840152602081019050610b56565b50505050905090810190601f168015610b9e5780820380516001836020036101000a031916815260200191505b509250505060405180910390f35b606060038054600181600116156101000203166002900480601f016020809104026020016040519081016040528092919081815260200182805460018160011615610100020316600290048015610c445780601f10610c1957610100808354040283529160200191610c44565b820191906000526020600020905b815481529060010190602001808311610c2757829003601f168201915b5050505050905090565b6060600882815481101515610c5f57fe5b90600052602060002090600302016001018054600181600116156101000203166002900480601f016020809104026020016040519081016040528092919081815260200182805460018160011615610100020316600290048015610d045780601f10610cd957610100808354040283529160200191610d04565b820191906000526020600020905b815481529060010190602001808311610ce757829003601f168201915b50505050509050919050565b80600760006101000a81548160ff02191690831515021790555050565b606060018054600181600116156101000203166002900480601f016020809104026020016040519081016040528092919081815260200182805460018160011615610100020316600290048015610dc55780601f10610d9a57610100808354040283529160200191610dc5565b820191906000526020600020905b815481529060010190602001808311610da857829003601f168201915b5050505050905090565b600881815481101515610dde57fe5b90600052602060002090600302016000915090508060000160009054906101000a900473ffffffffffffffffffffffffffffffffffffffff1690806001018054600181600116156101000203166002900480601f016020809104026020016040519081016040528092919081815260200182805460018160011615610100020316600290048015610eb05780601f10610e8557610100808354040283529160200191610eb0565b820191906000526020600020905b815481529060010190602001808311610e9357829003601f168201915b505050505090806002018054600181600116156101000203166002900480601f016020809104026020016040519081016040528092919081815260200182805460018160011615610100020316600290048015610f4e5780601f10610f2357610100808354040283529160200191610f4e565b820191906000526020600020905b815481529060010190602001808311610f3157829003601f168201915b5050505050905083565b60086060604051908101604052808573ffffffffffffffffffffffffffffffffffffffff168152602001848152602001838152509080600181540180825580915050906001820390600052602060002090600302016000909192909190915060008201518160000160006101000a81548173ffffffffffffffffffffffffffffffffffffffff021916908373ffffffffffffffffffffffffffffffffffffffff160217905550602082015181600101908051906020019061101a92919061153c565b50604082015181600201908051906020019061103792919061153c565b50505050505050565b80600490805190602001906110569291906115bc565b5050565b60606110ce600260405180828054600181600116156101000203166002900480156110bc5780601f1061109a5761010080835404028352918201916110bc565b820191906000526020600020905b8154815290600101906020018083116110a8575b5050915050604051809103902061123e565b905090565b606060058054600181600116156101000203166002900480601f01602080910402602001604051908101604052809291908181526020018280546001816001161561010002031660029004801561116b5780601f106111405761010080835404028352916020019161116b565b820191906000526020600020905b81548152906001019060200180831161114e57829003601f168201915b5050505050905090565b6000600880549050905090565b606060048054600181600116156101000203166002900480601f01602080910402602001604051908101604052809291908181526020018280546001816001161561010002031660029004801561121a5780601f106111ef5761010080835404028352916020019161121a565b820191906000526020600020905b8154815290600101906020018083116111fd57829003601f168201915b5050505050905090565b806006908051906020019061123a9291906115bc565b5050565b606080600060206040519080825280601f01601f1916602001820160405280156112775781602001602082028038833980820191505090505b5091505b602081101561130057838160208110151561129257fe5b1a7f01000000000000000000000000000000000000000000000000000000000000000282828151811015156112c357fe5b9060200101907effffffffffffffffffffffffffffffffffffffffffffffffffffffffffffff1916908160001a905350808060010191505061127b565b8192505050919050565b6000600760009054906101000a900460ff16905090565b606060068054600181600116156101000203166002900480601f0160208091040260200160405190810160405280929190818152602001828054600181600116156101000203166002900480156113b95780601f1061138e576101008083540402835291602001916113b9565b820191906000526020600020905b81548152906001019060200180831161139c57829003601f168201915b5050505050905090565b60008060009054906101000a900460ff16905090565b60006008828154811015156113ea57fe5b906000526020600020906003020160000160009054906101000a900473ffffffffffffffffffffffffffffffffffffffff169050919050565b60006001600760006101000a81548160ff02191690831515021790555030905090565b806005908051906020019061145c9291906115bc565b5050565b80600390805190602001906114769291906115bc565b5050565b606060088281548110151561148b57fe5b90600052602060002090600302016002018054600181600116156101000203166002900480601f0160208091040260200160405190810160405280929190818152602001828054600181600116156101000203166002900480156115305780601f1061150557610100808354040283529160200191611530565b820191906000526020600020905b81548152906001019060200180831161151357829003601f168201915b50505050509050919050565b828054600181600116156101000203166002900490600052602060002090601f016020900481019282601f1061157d57805160ff19168380011785556115ab565b828001600101855582156115ab579182015b828111156115aa57825182559160200191906001019061158f565b5b5090506115b8919061163c565b5090565b828054600181600116156101000203166002900490600052602060002090601f016020900481019282601f106115fd57805160ff191683800117855561162b565b8280016001018555821561162b579182015b8281111561162a57825182559160200191906001019061160f565b5b509050611638919061163c565b5090565b61165e91905b8082111561165a576000816000905550600101611642565b5090565b905600a165627a7a72305820aa735bc6e5c0cc46d4a1e82cfd426908e868652bcc3850902da676c41a4476220029",
  "source": "pragma solidity ^0.4.24;\n\ncontract SimpleContract{\n    uint EndorsementListPosition;\n    uint public numberOfUserAccounts;\n    uint public numberOfEndorserAccounts;\n    \n    event AllotedAddress(address AllotedAddress);\n    event AllotedAddressEndorser(address AllotedAddressEndorser);\n    \n    constructor(){\n        numberOfUserAccounts = 0;\n        numberOfEndorserAccounts=0;\n        EndorsementListPosition = 0;\n        \n    }\n    \n    \n    function createUserAccount(string name, string password, string city,string email,string DOB,string nId) returns(address){\n        \n        address a = new User(true, name, password);\n        AllotedAddress(a);\n        User user = User(a);\n        user.setCity(city);\n        //user.setCountry(country);\n        user.setEmail(email);\n        user.setDOB(DOB);\n        user.setNationalId(nId);\n        numberOfUserAccounts++;\n        \n        return a;\n    }\n    \n    \n    function getDetails(address addr, string pw) returns(bool,string,string,string,string,string,bool){\n        User user = User(addr);\n        require(keccak256(user.getPassordHash())==keccak256(keccak256(pw)));\n        return (user.getTypeOfUser(),user.getName(),user.getEmail(),user.getDOB(),user.getCity(),user.getNationalId(),user.getEndorsementStatus());\n        \n        \n        \n    }\n    struct AppliedEndorsement{\n        address AppliedBy;\n        string appliedByPw;\n    }\n    \n    address[] public Endorsers;\n    AppliedEndorsement[] public AppliedEndorsementList;\n    \n    function createEndorser(string name, string pw)returns(address){\n        address a = new User(false, name, pw);\n        AllotedAddressEndorser(a);\n        Endorsers.push(a);\n        numberOfEndorserAccounts++;\n        return a;\n    }\n    event Status(string status);\n    \n    function applyForEndorsemntMain(address addr, string pw)returns (string){\n        User user = User(addr);\n        if(keccak256(user.getPassordHash())==keccak256(keccak256(pw)) && user.getEndorsementStatus()==false){\n        AppliedEndorsementList.push(AppliedEndorsement(user.applyForEndorsement(),pw));\n        EndorsementListPosition++;\n        Status(\"Application Successful\");\n        return (\"Successfull\");\n\n        }\n    }\n    function getNumberofAppliedEndorsementCurrent() returns(uint256 a){\n        a = AppliedEndorsementList.length;\n        return a;\n    }\n    function getAllAppliedEndorsements(address addr, string pw, uint position)returns(address,string){\n        User user = User(addr);\n        if(keccak256(user.getPassordHash())==keccak256(keccak256(pw)) && user.getTypeOfUser()==false){\n          \n            return (AppliedEndorsementList[position].AppliedBy,AppliedEndorsementList[position].appliedByPw);\n        }\n        else{\n            return (0xc00000000000002088730c353a52cc3fa157fbdf,\"123\");\n        }\n    \n    }\n    \n    \n    \n    // }\n    \n    function EndorsementVerified(address addr, string pw,address uaddr, uint256 id) returns(string){ // here endorsers address and pw are required\n        User user = User(addr);\n        if(keccak256(user.getPassordHash())==keccak256(keccak256(pw)) && user.getTypeOfUser()==false){\n            User userU = User(uaddr);\n            userU.AddEndorsement(addr,user.getName(),\"Verified\");\n            userU.setEndorsementStatus(false);\n            delete AppliedEndorsementList[id];\n            for(uint i=id; i<AppliedEndorsementList.length-1;i++){\n\n                AppliedEndorsementList[i].AppliedBy = AppliedEndorsementList[i+1].AppliedBy;\n                AppliedEndorsementList[i].appliedByPw = AppliedEndorsementList[i+1].appliedByPw;\n\n            }\n            delete AppliedEndorsementList[AppliedEndorsementList.length-1];\n            AppliedEndorsementList.length--;\n            return (\"Verified\");\n\n\n            //AppliedEndorsementList[id].AppliedBy = 0x00000000000000000000000000000000000000;\n            //AppliedEndorsementList[id].appliedByPw = \"\";\n\n\n\n            // removing from list\n            // for(uint i= id; i<AppliedEndorsementList.length;i++){\n            //     AppliedEndorsementList[i].AppliedBy=AppliedEndorsementList[i+1].AppliedBy;\n            //     AppliedEndorsementList[i].appliedByPw = AppliedEndorsementList[i+1].appliedByPw;\n            // }\n            // AppliedEndorsementList.length = AppliedEndorsementList.length -1;\n        }\n     }\n    function EndorsementRejected(address addr, string pw,address uaddr, uint256 id)returns (string){ // here endorsers address and pw are required\n        User user = User(addr);\n        if(keccak256(user.getPassordHash())==keccak256(keccak256(pw)) && user.getTypeOfUser()==false){\n            User userU = User(uaddr);\n            userU.AddEndorsement(addr,user.getName(),\"Rejected\");\n            userU.setEndorsementStatus(false);\n            delete AppliedEndorsementList[id];\n            for(uint i=id; i<AppliedEndorsementList.length-1;i++){\n\n                AppliedEndorsementList[i].AppliedBy = AppliedEndorsementList[i+1].AppliedBy;\n                AppliedEndorsementList[i].appliedByPw = AppliedEndorsementList[i+1].appliedByPw;\n\n            }\n            delete AppliedEndorsementList[AppliedEndorsementList.length-1];\n            AppliedEndorsementList.length--;\n            return(\"Rejected\");\n\n            // removing from list\n            // for(uint i= id; i<AppliedEndorsementList.length;i++){\n            //     AppliedEndorsementList[i].AppliedBy=AppliedEndorsementList[i+1].AppliedBy;\n            //     AppliedEndorsementList[i].appliedByPw = AppliedEndorsementList[i+1].appliedByPw;\n            // }\n            // AppliedEndorsementList.length = AppliedEndorsementList.length -1;\n        }\n        \n    }\n    \n    //function for testing\n    // function createDefualtEndorsers(){\n    //     createEndorser(\"Haady\",\"123\");\n    //     createEndorser(\"Waleed\",\"123\");\n    //     createEndorser(\"Hasan\",\"123\");\n    // }\n\n    // function getEndorserFromList(uint n) returns (address){\n    //     if (n>Endorsers.length)\n    //     throw;\n\n    //     return Endorsers[n];\n\n    // }\n\n    function getNumberofEndorsementOfUser1(address addr)public constant returns(uint256){\n        uint256 n=0;\n        User user = User(addr);\n        n = user.getNumberofEndorsements();\n        return n;\n        \n        \n    }\n    function getEndorserFromUser(address addr, string pw, uint256 position)returns(address,string,string){\n        User user = User(addr);\n        if(keccak256(user.getPassordHash())==keccak256(keccak256(pw)) )\n        return(user.getEndorserAddFromPosition(position),user.getEndorserNameFromPosition(position),user.getEndorsementVerificationStatusFromPosition(position));\n    }\n    \n    \n    \n}\n\ncontract User{\n    bool typeOfUser; // true for User, false for endorser\n    string name;\n    string passwordHash;\n    \n    string city_country;\n    //string country;\n    string email;\n    string DOB;\n    string nationalId;\n    \n    bool EndorsmentStatus;\n    \n    struct EndorsmentDetails{\n        address EndorsedBy;\n        string Name;\n        string Verification;\n        \n    }\n    EndorsmentDetails[] public Endorsments;\n    \n    constructor(bool t, string n, string password){\n        typeOfUser = t;\n        name = n;\n        passwordHash = password;\n        EndorsmentStatus = false;\n        Endorsments.push(EndorsmentDetails(this,\"IDMS-Self-Endorsement\",\"Verified\"));\n        \n    }\n    function setCity(string c){\n        city_country = c;\n    }\n    // function setCountry(string cntry){\n    //     country = cntry;\n    // }\n    function setEmail(string em){\n        email = em;\n    }\n    function setDOB(string dob){\n        DOB = dob;\n        \n    }\n    function setEndorsementStatus(bool a){\n        EndorsmentStatus = a;\n    }\n    function setNationalId(string nid){\n        nationalId=nid;\n    }\n    function getNationalId() returns(string){\n        return nationalId;\n    }\n    \n    function getPassordHash() returns(string){\n        return bytes32toString(keccak256(passwordHash));\n    }\n    function getName() returns(string){\n        return name;\n    }\n    function getCity() returns(string){\n        return city_country;\n    }\n    // function getCountry() returns(string){\n    //     return country;\n    // }\n    function getEmail() returns (string){\n        return email;\n    }\n    function getDOB() returns( string ){\n        return DOB;\n    }\n    function getEndorsementStatus() returns(bool){\n        return EndorsmentStatus;\n    }\n    function getTypeOfUser()returns(bool){\n        return typeOfUser;\n    }\n    \n     function bytes32toString(bytes32 _bytes32) public constant returns(string){\n        bytes memory bytesArray = new bytes(32);\n        for(uint256 i; i<32;i++){\n            bytesArray[i]=_bytes32[i];\n        }\n        return string(bytesArray);\n    }\n    \n    function applyForEndorsement()returns(address){\n        EndorsmentStatus = true;\n        return this;\n    }\n    \n    function AddEndorsement(address addr,string name, string v){\n        Endorsments.push(EndorsmentDetails(addr,name,v));\n    }\n    \n    function getNumberofEndorsements()returns (uint256){\n        return Endorsments.length;\n    }\n    function getEndorserAddFromPosition(uint256 i) returns(address){\n        return Endorsments[i].EndorsedBy;\n    }\n    function getEndorserNameFromPosition(uint256 i) returns(string){\n        return Endorsments[i].Name;\n    }\n    function getEndorsementVerificationStatusFromPosition(uint256 i) returns(string){\n        return Endorsments[i].Verification;\n    }\n    \n}\n    \n    \n    \n\n\n\n\n\n\n\n\n\n\n\n\n\n\n\n\n\n// pragma solidity ^0.4.22;\n\n// contract SimpleContract {\n\n// \t    event showString(address AllotedAddress);\n    \n//     mapping (address => address) listofAccounts;\n\n//     function createWallet(bytes32 name, bytes32 age, bytes32 pAddres)returns (string){\n//         address a  = new Wallet(name, age, pAddres);\n//         showString(a);\n//         return toString(a);\n//     }\n        \n//         function getData(address adr) payable returns(bytes32, bytes32, bytes32){\n//             Wallet wallet = Wallet(adr);\n            \n            \n            \n//         return (wallet.getName(),wallet.getAge(),wallet.getAddress());\n        \n//     }\n\n//     function toString(address x)private returns (string) {\n//     bytes memory b = new bytes(20);\n//     for (uint i = 0; i < 20; i++)\n//         b[i] = byte(uint8(uint(x) / (2**(8*(19 - i)))));\n//     return string(b);\n//     }\n    \n// }\n// contract Wallet{\n//     event showStringWallet(bytes32 name, bytes32 age,bytes32 pAddress);\n    \n//     bytes32 name;\n//     bytes32 age;\n//     bytes32 pAddress;\n    \n//     function Wallet(bytes32 n, bytes32 a, bytes32 p){\n//         showStringWallet(n, a, p);\n//         name=n;\n//         age=a;\n//         pAddress=p;\n        \n\n//     }\n    \n//     function getName() returns(bytes32){\n//         return name;\n//     }\n//     function getAge() returns(bytes32){\n//         return age;\n//     }\n//     function getAddress() returns(bytes32){\n//         return pAddress;\n//     }\n    \n// }",
  "sourcePath": "C:\\Users\\Waleed\\Desktop\\TruffleAngularBox-master\\TruffleAngularBox-master\\contracts\\SimpleContract.sol",
  "compiler": {
    "name": "solc",
    "version": "0.4.24+commit.e67f0147.Emscripten.clang"
  },
  "schemaVersion": "2.0.0",
  "updatedAt": "2018-09-06T19:28:56.230Z"
}